:020000040800F2
:10000000781B0020DD0100086D2100086521000833
:100010006921000801190008752900080000000086
:100020000000000000000000000000009D24000807
:100030003519000800000000D122000889250008B9
:10004000F7010008F7010008F7010008F7010008B0
:10005000F7010008F701000837190008F701000848
:10006000F7010008F7010008F7010008F701000890
:10007000F7010008F7010008F7010008F701000880
:10008000F7010008F7010008F70100080000000070
:10009000000000000000000000000000F701000860
:1000A000F7010008F7010008F7010008F701000850
:1000B000F7010008F7010008F7010008F701000840
:1000C000F7010008F7010008F7010008F701000830
:1000D000F7010008F125000825260008B1260008D0
:1000E000F7010008F7010008F70100080000000010
:1000F0000000000000000000000000000000000000
:1001000000000000000000000000000000000000EF
:100110000000000000000000F7010008F7010008DF
:1001200000F002F800F04AF80AA090E8000C8244BF
:100130008344AAF10107DA4501D100F03FF8AFF29C
:10014000090EBAE80F0013F0010F18BFFB1A43F0B5
:10015000010318475C6D00007C6D0000103A24BF5D
:1001600078C878C1FAD8520724BF30C830C144BF1C
:1001700004680C607047000000230024002500265E
:10018000103A28BF78C1FBD8520728BF30C148BFFA
:100190000B607047002070471FB500F051FA040053
:1001A0000020002106F03CF9401C60600020002186
:1001B00006F020F9E0601FBD10B510BD00F012FA86
:1001C0001146FFF7E9FF04F0D9FC00F0FDFC03B491
:1001D000FFF7F2FF03BC02F05BFC00000948804718
:1001E00009480047FEE7FEE7FEE7FEE7FEE7FEE719
:1001F000FEE7FEE7FEE7FEE704480549054A064B31
:10020000704700008D2500082101000878110020AA
:10021000781B00207815002078150020704700001A
:100220000FB4044910B503AA029800F07FF810BC7F
:100230005DF814FB7000002030B505460B462A46D9
:1002400013F8014B12F8010B08B1A042F8D01CB111
:10025000002802D06D1CF1E7284630BD4FF0013C6C
:1002600050F8042B51F8043B9A4221D1A2EB0C0325
:10027000934313EACC1317D150F8042B51F8043BE5
:100280009A4215D1A2EB0C03934313EACC130BD182
:1002900050F8042B51F8043B9A4209D1A2EB0C030D
:1002A000934313EACC13DBD04FF00000704700BF3C
:1002B000D01A01BAB1FA81F101F0180122FA01F065
:1002C000CB40C1F12001DBB2C0B2C01A2CFA01F35D
:1002D000D11A914311EAC311E6D1704770477047B4
:1002E0007047704710B500F047F9006810BD10B5B1
:1002F000044600F041F9046010BD000001694A1C89
:1003000002610878704700B58FB0CDE90131002156
:10031000059105497944CDE903101146684600F07E
:1003200017F80FB000BD0000E5FFFFFF074B70B5E9
:100330000D467B44FFF7E7FF0446284600F049F9E5
:1003400010B14FF0FF3070BD204670BD673E000019
:100350002DE9F05F894604464FF0000ADFF874B1DA
:10036000FB44C0F820A02046E1688847002874D0EC
:10037000252806D0D4E901219047206A401C20623C
:10038000F1E700265F462046E168884720280546B9
:1003900007DB312D05D2781910F8200C08B106437F
:1003A000F1E7B00701D526F00406C4F81CA0002729
:1003B000C4F818A02A2D09D0284602F062FB38B3F1
:1003C00004EB8708303DC8F8185019E059F8041BB1
:1003D000204604EB87029161E1688847012F0546BA
:1003E00018D1E069002820DA26F020061DE0D8F8B0
:1003F000180000EB800005EB40003038C8F818000A
:100400002046E1688847054602F03BFB0028EED114
:10041000012F0AD02E2D08D12046E16888477F1C85
:100420000546022F46F02006C4DBA069002803DA47
:10043000404246F00106A061F00701D026F0100608
:100440006C2D0BD0682D09D04C2D39D06A2D35D0AC
:10045000742D35D07A2D33D016E038E0E1682F4680
:1004600020468847B842054609D16C2F26D04FF464
:100470008060E168064320468847054604E06C2F0B
:100480001AD04FF4807006430DB3A5F1410019282E
:1004900002D8203546F400664A46294620462660A2
:1004A0004E46FFF777FE80B101280BD0F61D26F0EF
:1004B000070000F1080956E74020E4E78020D8E76C
:1004C0000020D6E706F104094DE7284652E7206AE6
:1004D000BDE8F09FA46A00000FB4002300B589B006
:1004E0000CA900910B99CB60204B7B440693204BC9
:1004F0007B44079304236FF00042CDE901321D4A8B
:100500007A446B4608920246002006F029FC09B0A6
:100510005DF814FB70B506464FF0FF3015460C46EB
:10052000324686B00091CDE9010169460020049071
:1005300004A8FFF7D1FF03460498211825B108B19C
:100540000A4600E022462A6000280DD0002B02DD7A
:100550000098884208D03246081B69460094CDE9CD
:10056000010404A8FFF7B8FF06B070BDA5000000A5
:10057000BD0000007D0000000048704718110020F9
:1005800010B5044600F054F80068005D00F001006A
:1005900010BD426842B1016811F8013B23B1521EFF
:1005A000C0E90012184670470121C160881E7047DB
:1005B00042685AB1C368016843B983688B4205D069
:1005C000491E521CC0E90012002070474FF0FF3056
:1005D0007047007B00F080007047000000487047C3
:1005E000181100207546FFF7F9FFAE460500694671
:1005F000534620F00700854618B020B5FFF7FCFDF4
:10060000BDE820404FF000064FF000074FF0000813
:100610004FF0000B21F00701AC46ACE8C009ACE894
:10062000C009ACE8C009ACE8C0098D4670470000BD
:1006300010B500F005F8001D10BD00BFE55D00001D
:1006400000487047381100202DE9FF4F064689B059
:100650000878FF2806D0491C2D2805D000244FF02B
:10066000000908E000200CE00124F8E709EB890309
:10067000491C00EB43090878FF28F7D114B1C9F1F0
:1006800000008146107800252C46AA4629462D28D0
:1006900001D02B2804D1521C2D2813D000208246D3
:1006A0008B461078FF280FD04FF0000C0A21521C07
:1006B000A5FB017804FB018105FB0C11C5194BEB6F
:1006C0000104EEE70120EAE7002108464FF00000B0
:1006D000BAF1000F02D000EB80004008C0F381584F
:1006E000B8F1010F01DD4FF0FF380C9809EB00075E
:1006F00055EA040009D04FF0020917F5FA7F0BDA2A
:100700004FEACA70C6E900B012E04FEACA70C6E903
:1007100000B00DB0BDE8F08FB7F5FA7F0DDDF04801
:100720007844D0E90010C6E9001040EACA70706051
:10073000FFF722FFC0F80090EBE7391E02DAC8F19C
:10074000000200E0424600DA794206A800F0CEF945
:1007500006AB93E8070003AB83E8070044F23E00D2
:100760005BEA04010090584604D144F21E012C4675
:100770005D460091210C0904014306D1009924042F
:1007800044EA15442D041039009104F07F410143DF
:1007900006D10099240244EA15642D02083900911B
:1007A00004F07041014306D10099240144EA157414
:1007B0002D01091F009104F04041014306D1009929
:1007C000A40044EA9574AD00891E009104F0004134
:1007D000084304D100986D196441401E00904246C0
:1007E0006846002FCDE9014503A902DD00F0A3FE14
:1007F00001E000F078FEBAF1000F04460D4601D08A
:1008000084F0004440F2FF7724F00040284303D0F6
:10081000C4F30A50B84212D1FFF7AEFEC0F8009000
:10082000C4F30A50B8420AD1AE487844D0E9001067
:10083000C6E9001004F000410843706069E7C6E9AA
:10084000005466E72DE9FF4F1F464FF0000A4FF0B6
:10085000FF38454691B0D7E90146CDF83CA0FFF7F7
:10086000EFFEC0680168405C1090B96912986D1C79
:100870008847396A814688470028F6D1B9F1FF3F99
:100880000AD0002E24F4D06411DDB9F12B0F08D06A
:10089000B9F12D0F0BD102E0404615B03AE744F410
:1008A0008064B96912986D1C8847761E8146600580
:1008B00004A901D52D2000E02B20002E01F1010B11
:1008C0000DF130088DF810003FDDB9F1690F08D047
:1008D000B9F1490F05D0B9F16E0F02D0B9F14E0F41
:1008E0001CD13B4601A8009580E85002DDE91212B8
:1008F0006FF0020006F038FAC11CCED10EE0B969E3
:1009000012986D1C884781461398761E44F4007433
:1009100005600F98401C002E0F9016DDB9F1300FC6
:10092000EDD0B9F1780F02D0B9F1580F0DD10F9871
:1009300001280AD13B46CDE90054DDE91212001F1F
:10094000029606F00FFAC11CA7D1109989453ED135
:1009500044F0800406E01399681CAAF1010A44F4EB
:1009600000740860B9696D1C1298761E884730289B
:100970008146F0D02BE01099894505D1200603D49B
:10098000761E44F0800418E0484602F07AF808B376
:10099000761E0DF123018B4544F4007408D2A9F1B1
:1009A00030000BF8010B200607D5AAF1010003E087
:1009B000200602D40AF101008246A00502D513994F
:1009C000681C0860B96912986D1C88478146002E22
:1009D000D1DC53E0002E51DDB9F1650F02D0B9F141
:1009E000450F4BD1A00549D5B9696D1C1298761EEB
:1009F00024F440748847002E81460CDD2B2804D057
:100A0000B9F12D0F07D144F48074B96912986D1CA7
:100A10008847761E8146E00501D52D2100E02B2177
:100A200008F8011BCDF8008021E0761E0DF1390198
:100A3000884544F400740CD2A9F1300010F0FF0096
:100A400088F8000002D10099884509D908F1010809
:100A500006E0E00501D5244801E042F20F7082462D
:100A6000B96912986D1C8847814613980560002E5D
:100A700004DD484602F005F80028D6D1F96912983D
:100A80008847FF2053468BF8000088F800000020BC
:100A90000A900B9004AA0CA90AA8FFF7D5FDA0059F
:100AA00002D46FF00100F8E614F0240F0AD0E0073A
:100AB00014D13868DDE90A12031D3B600068C0E903
:100AC00000120BE00AA9684601F084FFE00705D197
:100AD0003868009A011D3960006802602846DCE62B
:100AE000AC670000A2660000F1D8FFFF2DE9F047D7
:100AF000814616468AB0334878440DC88DE80D000B
:100B000030487844801C03AC0DC884E80D0041F6E1
:100B10009B300844372190FBF1F290FBF1F5A5F1F1
:100B2000800501FB12041B3C02D56442012000E059
:100B30000020DFF890A080460027FA44AAF1BE0A00
:100B40000DE0E00709D03246684607EB47010AEBA3
:100B5000810100F0DCFC8DE8070064107F1C002C94
:100B6000EFD1184F7F44AC3F18E0E80714D007EBF3
:100B700004100DF1180A90E80E008AE80E00C06813
:100B8000F04201D198190890324606A903A800F056
:100B9000BEFC03AB83E807006D10641C002DE4D19C
:100BA00032466946B8F1000F03A802D000F087FC76
:100BB00001E000F0ACFCC9E90001C9F808200AB066
:100BC000BDE8F0879C63000010B50446AFF30080D9
:100BD0002046BDE81040FFF7FABA00002DE9FF4FAC
:100BE0001F464FF03C0987B04FF00042DDE914107A
:100BF00001F10108DDF858A002EA405003900020FE
:100C000004908346054604460590B969461E089837
:100C10008847AAF1010A0290BAF1000F37DD029865
:100C20002E2815D0102100F012FA00282ADB4FF0F0
:100C3000010B0499014316D0B9F1000F0BDB4A46B2
:100C4000C11700F0F1F905430C43A9F1040905E0CF
:100C50000120059007E008B145F00105012004904E
:100C6000059800B9361DB969089808F10108884748
:100C7000BBF1000FAAF1010A0290CDD00999C1F889
:100C80000080C9E70298702808D0502806D0F9697A
:100C900008988847BBF1000F14D04FE00020029065
:100CA0000120BBF1000F049009D0B969089808F140
:100CB00001088847AAF10109B9F1000F07DCF969B9
:100CC000089888476FF001000BB0BDE8F08F2B2823
:100CD00004D02D280CD14FF0FF300490B96908984A
:100CE00008F101088847A9F10109B9F1000FE6DD13
:100CF000411CE4D00A2100F0AAF90028DFDB0299A8
:100D000008F1010801EB810100EB41000290B96993
:100D1000089888470A2100F09AF9099AA9F101096F
:100D2000B9F1000FC2F8008001DD0028E7DAF969A7
:100D3000089888470499029800FB016655EA040068
:100D400004D004F04041090002D006E0039898E086
:100D5000A40044EA9574AD00B61E04F000410800FA
:100D600002D16D196441761E159810F0240F03D03E
:100D70004FF00B095C4803E04FF028096FF07D004D
:100D80008246564507DAAAEB06018944B9F1410FBC
:100D900001DD4FF0410901200021A9F1010200F01D
:100DA00043F9024628400B462140084301D0012167
:100DB00000E00021501E029143F1FF312840214004
:100DC000084301D0012000E000200299834651EA47
:100DD0000B014FD0002108464FF00000039900F4AA
:100DE000400039B100EB80004FF4400100EBD070BF
:100DF00001EA60008015012802DD4FF0FF3000E0BD
:100E000013D0401C36D0029860B3BBF1000F0CD158
:100E10004A460120002100F007F9284021400843FC
:100E200001D0012000E00020E0B101204A4600216D
:100E300000F0FAF8034640190A4661412D1A8C4128
:100E400011D3B9F1400F09DD159810F0240F02D02D
:100E5000AAF1340603E0AAF1170600E0761C00258B
:100E60004FF0004406E05B1E42F1FF3220EA03052A
:100E700021EA0204CAF10100B04206DA1B490398D4
:100E800008430190002000900EE0039AC4F3D321A0
:100E9000E80A0A43164940EA44500A433146CDE97C
:100EA0000002684601F0E2FD159810F0240F0BD007
:100EB0001598C00715D13868DDE90012031D3B60A5
:100EC0000068C0E900120CE002A8694601F082FD4A
:100ED0001598C00705D13868029A011D396000686D
:100EE00002604046F0E6000002FCFFFF0000F07FD9
:100EF0000000F03F2DE9FF4F92461D4685B04FF0B0
:100F00000041DDE9124BDDE914727F1E01EA4B500E
:100F1000414940F0FF4940EA0108002122F0200049
:100F20004928049102D04E2828D04CE03BA001264D
:100F300007C88DE80700A9690698641C88477F1ECA
:100F4000014606D41DF8060018B121F020018142A7
:100F50000BD0E96906988847032E34D0082E32D08A
:100F60006FF0010009B0BDE8F08F761C032E01D0B0
:100F7000082EE0D1601CCAF80000DCE7A9690698D9
:100F8000641C88477F1E2AD420F02000412826D1E7
:100F9000A9690698641C88477F1E20D420F0200091
:100FA0004E281CD1A9690698641C88477F1E48F406
:100FB000002849F48009CAF8004001D4282806D046
:100FC000E969069888475FEACB7012D022E0A969E8
:100FD0000698641C88477F1E01D4002803DAE9695B
:100FE00006988847BCE72928F1D1641CCAF800405C
:100FF000E9E71BF0240F07D028680499031D2B6034
:101000000068C0E9001805E02868021D2A60006831
:10101000C0F800902046A5E70000F07F494E464901
:101020004E49545900000000B2F120030AD5C2F124
:10103000200301FA02F120FA03F300FA02F041EA78
:101040000301704700FA03F14FF0000070473A289F
:1010500000D2303820F02002412A01D3A2F137001B
:10106000884201D34FF0FF30704720F07F4C80EA78
:10107000030023F07F47ACEB070303F57C5300F03C
:10108000004003F1FF032DE980494FEA154B09B4F5
:101090004FEA144325EA0B4E24EA03480FF20426D4
:1010A00006EB132749083E785FEA320203FB066726
:1010B000C7F5000707FB06F64FEA54374FEAD64656
:1010C00006F1020607FB066CCCF1005C4FEA1C47F8
:1010D0002CEA074C07FB06F40CFB06F504EB15465F
:1010E0004FEA961634BF00204FF000404FEAD13748
:1010F00006FB07FC4FEA1C4C0CFB0BF7D21B03FB57
:101100000CF761EB07010CFB0EF7B0EB074072EB3D
:1011100017420CFB08F734BFA2EB0742B2EB0742C1
:1011200061EB17414FEA0C444FEA910706FB07FCBD
:101130004FEA1C4C0CFB0BF7B0EBC74072EB57327D
:1011400003FB0CF734BFA2EBC742B2EBC74261EB23
:1011500057310CFB0EF7B0EBC70072EB57720CFB6C
:1011600008F734BFA2EBC702B2EBC70261EB5771BD
:10117000039F4FEA816141EA921104EBCC044FEAEC
:10118000D1374FEA826206FB07FC42EA90124FEA2F
:1011900080604FEA1C4C0CFB0BF7D21B03FB0CF7D7
:1011A00061EB07010CFB0EF7B0EB074072EB174247
:1011B0000CFB08F734BFA2EB0742B2EB074261EB2E
:1011C00017414FEA8C554FEA910704EB9C2406FB2C
:1011D00007FC4FEA1C4C0CFB0BF7B0EBC74072EB63
:1011E000573203FB0CF734BFA2EBC742B2EBC74246
:1011F00061EB57310CFB0EF7B0EBC70072EB577287
:101200000CFB08F734BFA2EBC702B2EBC70261EBDD
:10121000577115EB4C254FEA816141EA92114FEA73
:1012200082624FEAD13742EA901206FB07FC44F192
:1012300000044FEA80604FEA1C4C0CFB0BF7D21BFA
:1012400003FB0CF761EB07010CFB0EF7B0EB07405B
:1012500072EB17420CFB08F734BFA2EB0742B2EB6C
:10126000074261EB174115EB1C154FEA813141EA4A
:1012700092414FEA823242EA90424FEA80304FEA8E
:101280000C7644F1000448EA03434EEA0B484FF061
:10129000000EB2EB080C71EB030724BF624639461F
:1012A0004EEB0E0E4FF0000B0018524149414BEB34
:1012B0000B0BB2EB080C71EB03077BF1000B24BFA7
:1012C000624639464EEB0E0E4FF0000B00185241AD
:1012D00049414BEB0B0BB2EB080C71EB03077BF1B5
:1012E000000B24BF624639464EEB0E0E51EA020750
:1012F00018BF46F0010616EB0E7655F1000254F1C8
:10130000000103D5BDE88901BDE80088BDE8890179
:10131000BDE80048B619524141EB0101A3F10103B8
:10132000704780807F7E7D7C7B7A79787776767552
:101330007473727171706F6E6E6D6C6C6B6A6A69CA
:101340006868676666656464636362616160605F64
:101350005F5E5E5D5D5C5C5B5B5A5A5959585857DD
:101360005756565555555454535352525251515045
:1013700050504F4F4F4E4E4D4D4D4C4C4C4B4B4B98
:101380004A4A4A49494948484847474747464646DE
:101390004545454444444443434343424242424119
:1013A0004141000046EA0646A3F570534FEA16464F
:1013B00046EA42564FEAD22242EA415210B54FEA7B
:1013C000D121A3F1010300F017F820F0004000F153
:1013D000010C00F0004701EB00501146BCF5006F16
:1013E00040EA070000D210BD02484FF0000140EA79
:1013F000070010BD0000F07F002B26D4770021D01D
:101400001CB54FEA370703B44FF010004FF010013E
:101410004FF000000FBCBDE810400BF1010BBBF119
:10142000010F08BF5FEA170722BF12F1010211F195
:1014300001014FF0004143F1000300F0004043EA96
:1014400000007047F9D35708DAE746EA064613F179
:10145000400F4FEA16461FDD13F1200FDFBF164382
:101460000A46002120335B42C8D0C3F1200746EA78
:10147000064602FA07F74FEA164646EA0706C3F1A0
:10148000200722FA03F201FA07F721FA03F14FF0DD
:10149000000342EA0702B1E746EA020646EA0646C8
:1014A0004FEA164646EA0106BCBF46EA0646360C37
:1014B0004FF000034FF000024FF000019EE72DE9CE
:1014C000C048934630B491E8380007C831EA400C70
:1014D00048BF34EA430C03D5FFF7C7FDFFF78CFF85
:1014E000F0BCBDE800882DE9C048934630B491E8CF
:1014F000380007C831EA400C48BF34EA430C03D532
:10150000FFF7B3FDFFF74EFFF0BCBDE800882DE903
:10151000C048934630B491E8380007C810F0804FB7
:1015200008BF13F0804F03D100F019F8FFF764FFF4
:10153000F0BCBDE800882DE9C048934630B491E87E
:10154000380007C810F0804F08BF13F0804F03D158
:1015500000F005F8FFF726FFF0BCBDE8008820F09A
:101560007F4780EA030023F07F4C07EB0C03A3F5D1
:101570007C5300F00040A3F1FE0392F0000F00F056
:10158000B38095F0000F00F077802DE901494FEA14
:1015900011404FEA144621EA004800FB06FC24EA09
:1015A000064708FB06F607FB08F800FB07F718EBF1
:1015B00006484CEB164C4FEA124B18EB07484FEA23
:1015C00015464CEB174022EA0B4E0BFB06FC25EAB6
:1015D00006470EFB06F607FB0EFE0BFB07F71EEB9E
:1015E000064E4CEB164C4FF000061EEB074E4CEB34
:1015F000174B18EB0B0840F1000018EB0E0B58EBE3
:10160000000840F100008F1A4FF000013CBFC943B1
:10161000661B14BFB5EB040C00213CBFC943F61B8D
:101620004FEA17444EEA8E0E27EA04454FEA1C475C
:1016300004FB07622CEA074C05FB07F70CFB05F6D9
:1016400004FB0CFC16EB074642EB174216EB0C466C
:1016500042EB1C421BEB060658EB0202414146EAF4
:101660009E0601D5BDE80189B619524141EB010141
:10167000A3F10103BDE801894FEA14454FEA114780
:1016800024EA054621EA074C05FB07F406FB07F7A9
:101690000CFB06F105FB0CFC11EB074144EB174476
:1016A0004FEA124711EB0C4144EB1C4422EA074C71
:1016B00005FB07F206FB07F70CFB06F605FB0CFC27
:1016C00016EB074642EB174216EB0C4642EB1C4565
:1016D0006A1854F1000148BF7047B619524141EBF6
:1016E0000101A3F10103704795F0000F37D04FEAD5
:1016F00011424FEA144721EA024624EA074C02FB52
:1017000007F106FB07F70CFB06F402FB0CFC14EBDD
:10171000074441EB17414FEA154714EB0C4441EBEA
:101720001C4125EA074C02FB07F506FB07F70CFBFB
:1017300006F602FB0CFC16EB074645EB174516EBCD
:101740000C4645EB1C42121951F1000148BF70478D
:10175000B619524141EB0101A3F1010370474FEA71
:1017600014454FEA114724EA054621EA074C05FBD8
:1017700007F106FB07F70CFB06F24FF0000605FB2E
:101780000CFC12EB074241EB174112EB0C4251EB00
:101790001C4148BF7047921841EB0101A3F10103BE
:1017A0007047000070B5002500241DA11F48FEF7FA
:1017B00043FD044644B11EA0FEF732FD4FF4FA701B
:1017C00001F024FC00F09EF800241DA11748FEF74C
:1017D00033FD044644B11EA0FEF722FD4FF4FA701B
:1017E00001F014FC00F08EF800241DA10F48FEF754
:1017F00023FD04464FF47A7001F008FC6CB100251B
:1018000004E0002009494855681CC5B21748007813
:101810008542F6DB002015490870204670BD0000A7
:101820002B425450414952494E473A00B4060020D9
:1018300041542B4254504149523D312C310D0A0044
:101840002B4254434F4E4E454354494E473A0000B5
:1018500041542B4254414350543D310D0A00000085
:101860002B4254434F4E4E4543543A0074000020DF
:1018700010B512A0FEF7D4FC4FF47A7001F0C6FB4D
:1018800000F040F811A0FEF7CBFC4FF47A7001F0A5
:10189000BDFB00F037F812A0FEF7C2FC4FF47A70DF
:1018A00001F0B4FB00F02EF811A0FEF7B9FC4FF4E4
:1018B0007A7001F0ABFB00F025F810BD41542B42CB
:1018C00054504F5745523D310D0A000041542B42B0
:1018D00054484F53543D3575436C6F75640D0A0081
:1018E00041542B4254484F53543F0D0A000000000E
:1018F00041542B42545649533D310D0A000000001B
:1019000000BFFEE700B5094801F020F8002304E01D
:1019100000200649C854581CC3B2054800788342C9
:10192000F6DB00200249087000BD0000B40600206C
:1019300074000020704710B5012000F00DF820B1B0
:1019400002F0DCFE012000F001F810BD0149086042
:101950007047000014040140014600200022074B9C
:101960001B6803EA0102054B14331B680B4013B1DB
:101970000AB1012000E0002070470000000401408F
:10198000002123498279002A3AD00A461268036866
:101990009A430B461A600A1D126803689A430B1D8E
:1019A0001A60027911440A6803681A430A60184AE7
:1019B0000832126803689A43154B08331A601A1DDF
:1019C000126803689A43124B0C331A604279102A4A
:1019D0000ED11A1F126803681A430D4B08331A60A0
:1019E0001A1D126803681A43094B0C331A600DE084
:1019F0000749427911440A6803681A430A6005E0FE
:101A0000027911440A6803689A430A60704700002B
:101A10000004014030B500228B071C0F0F2303FA8E
:101A200004F20B4B8C1053F824309343084C8D1068
:101A300044F8253023468C1053F824308C07240FAB
:101A400000FA04F42343024C8D1044F8253030BDD5
:101A5000080001402DE9F041024600250026002043
:101A600000230024002791F803C00CF00F0591F823
:101A700003C00CF0100CBCF1000F03D091F802C0B1
:101A80004CEA050591F800C0BCF1000F31D0146894
:101A900000202BE04FF0010C0CFA00F3B1F800C06D
:101AA0000CEA03069E4220D183004FF00F0C0CFA83
:101AB00003F7BC4305FA03FC4CEA040491F803C0A5
:101AC000BCF1280F06D14FF0010C0CFA00FCC2F853
:101AD00014C00AE091F803C0BCF1480F05D14FF0E3
:101AE000010C0CFA00FCC2F810C0401C0828D1D32D
:101AF0001460B1F800C0BCF1FF0F34DD5468002061
:101B00002EE000F1080C4FF0010808FA0CF3B1F8D0
:101B100000C00CEA03069E4221D183004FF00F0C57
:101B20000CFA03F7BC4305FA03FC4CEA040491F8F1
:101B300003C0BCF1280F05D100F1080C08FA0CF81D
:101B4000C2F8148091F803C0BCF1480F07D100F12E
:101B5000080C4FF0010808FA0CF8C2F81080401C7D
:101B60000828CED35460BDE8F0810000F0B50A46E5
:101B7000002300240021002500F00046B6F1004FAC
:101B800002D11D4EF16901E01B4E7168C0F303459F
:101B900083B200F44016B6F5401F08D121F0706101
:101BA000154E766826F07066134F7E6012E000F4E2
:101BB0008016B6F5801F06D1032606FA05F4A14368
:101BC00041F0706106E0460D360103FA06F6B143B6
:101BD00041F0706122B1460D360103FA06F6314339
:101BE00000F00046B6F1004F02D1034EF16101E072
:101BF000014E7160F0BD000000000140024600206F
:101C000093680B400BB1012000E000207047416158
:101C1000704701617047000010B50024FFF772FEA5
:101C200011A0FEF7FDFA4FF4FA7001F0EFF912A1DE
:101C3000144803F04BFC044634B113A0FEF7F0FA4D
:101C40004FF4FA7001F0E2F9FFF75CFE12A0FEF724
:101C5000E7FA4FF4FA7001F0D9F9FFF753FE13A039
:101C6000FEF7DEFA10BD000041542B43475053509D
:101C700057523F0D0A0000002B4347505350575214
:101C80003A203000B406002041542B4347505350B3
:101C900057523D310D0A000041542B4347505353D6
:101CA00054415455533F0D0A0000000041542B434A
:101CB0004750534F55543D3235350D0A0000000052
:101CC00010B50024CCA0FEF7ABFA4FF4FA7001F087
:101CD0009DF9C9A0FEF7A4FA4FF4FA7001F096F945
:101CE000C7A1C84803F0F2FB04460DE0FFF70AFE67
:101CF000C1A0FEF795FA4FF4FA7001F087F9C0A180
:101D0000C04803F0E3FB0446002CEFD0BEA0FEF772
:101D100087FA4FF4FA7001F079F9BEA1B94803F0DF
:101D2000D5FB04460DE0FFF7EDFDB7A0FEF778FA0E
:101D30004FF4FA7001F06AF9B6A1B24803F0C6FB9D
:101D40000446002CEFD0FFF7DDFDB6A0FEF768FAE1
:101D5000FFF7D8FDB6A0FEF763FA4FF4FA7001F072
:101D600055F9B6A1A74803F0B1FB04460DE0FFF713
:101D7000C9FDAFA0FEF754FA4FF4FA7001F046F92E
:101D8000B1A1A04803F0A2FB0446002CEFD0FFF75E
:101D9000B9FDB0A0FEF744FA4FF4FA7001F036F93D
:101DA000B0A1984803F092FB04460DE0FFF7AAFDAE
:101DB000A8A0FEF735FA4FF4FA7001F027F9ACA1AC
:101DC000904803F083FB0446002CEFD0FFF79AFD08
:101DD000AAA0FEF725FA4FF4FA7001F017F9ABA0AC
:101DE000FEF71EFA4FF4FA7001F010F9ABA1854826
:101DF00003F06CFB04460DE0FFF784FDA3A0FEF7A3
:101E00000FFA4FF4FA7001F001F9A4A17D4803F034
:101E10005DFB0446002CEFD0FFF774FDA1A0FEF798
:101E2000FFF94FF4FA7001F0F1F875A1754803F06D
:101E30004DFB04460DE0FFF765FD9AA0FEF7F0F9B3
:101E40004FF4FA7001F0E2F86DA16E4803F03EFB2A
:101E50000446002CEFD0FFF755FD97A0FEF7E0F900
:101E60004FF4FA7001F0D2F865A1664803F02EFB3A
:101E700004460DE0FFF746FD8FA0FEF7D1F94FF4C1
:101E8000FA7001F0C3F85EA15E4803F01FFB044640
:101E9000002CEFD0FFF736FD8EA0FEF7C1F94FF40E
:101EA000FA7001F0B3F856A1564803F00FFB044650
:101EB0000DE0FFF727FD87A0FEF7B2F94FF4FA70A7
:101EC00001F0A4F84EA14F4803F000FB0446002C9B
:101ED000EFD0FFF717FD83A0FEF7A2F94FF4FA70D9
:101EE00001F094F846A1474803F0F0FA04460DE0EB
:101EF000FFF708FD7BA0FEF793F94FF4FA7001F0AD
:101F000085F83FA13F4803F0E1FA0446002CEFD0EA
:101F1000FFF7F8FC79A0FEF783F94FF4FA7001F0AF
:101F200075F837A1374803F0D1FA04460DE0FFF702
:101F3000E9FC72A0FEF774F94FF4FA7001F066F84C
:101F40002FA1304803F0C2FA0446002CEFD0FFF76F
:101F5000D9FC6EA0FEF764F94FF4FA7001F056F860
:101F600027A1284803F0B2FA04460DE0FFF7CAFCA7
:101F700066A0FEF755F94FF4FA7001F047F820A17A
:101F8000204803F0A3FA0446002CEFD0FFF7BAFC78
:101F900062A0FEF745F94FF4FA7001F037F818A186
:101FA000184803F093FA04460DE066A1154803F0C3
:101FB0008DFA044666A1134803F088FA6849086060
:101FC000642001F023F81CB9654800680028ECD0B3
:101FD0004FF4FA7001F01AF84FF4FA7001F016F8A5
:101FE0004FF4FA7001F012F84FF4FA7001F00EF8A5
:101FF000FFF788FC10BD000041540D0A00000000EE
:102000004F4B0000B406002041542B4350494E3F33
:102010000D0A00002B4350494E3A20524541445985
:102020000000000041542B434349440D0A000000C6
:102030002041542B435245473F0D0A002B43524544
:10204000473A20302C3500002B435245473A203088
:102050002C3100002041542B43475245473F0D0A85
:10206000000000002B43475245473A20302C3500F2
:102070002B43475245473A20302C310041542B43E3
:102080004950434C4F53453D310D0A0041542B43B9
:102090004950534855540D0A000000005348555408
:1020A000204F4B0041542B4347434C4153533D2257
:1020B00042220D0A0000000041542B434744434F85
:1020C0004E543D312C224950222C22434D4E455432
:1020D000220D0A0041542B43474154543D310D0A0F
:1020E0000000000041542B434950435347503D31B9
:1020F0002C22434D4E4554220D0A000041542B43DF
:1021000049504D55583D300D0A00000041542B43B5
:1021100049504D4F44453D310D0A000041542B4379
:10212000495053544152543D22544350222C22349E
:10213000372E39322E38312E323138222C31313986
:10214000340D0A00434F4E4E454354204F4B000080
:10215000414C524541445920434F4E4E4543540053
:102160008800002000BFFEE700BFFEE770470000C8
:1021700070B5002100230F22C47804B3154C2468E5
:1021800004F4E064C4F5E064210AC1F10403CA4028
:10219000447804FA03F184781440214309010E4C79
:1021A0000678A155047804F01F050124AC40057899
:1021B0006D11AD0005F1E025C5F8004109E0047896
:1021C00004F01F050124AC40044D0678761145F853
:1021D000264070BD0CED00E000E400E080E100E08E
:1021E00002490143024A1160704700000000FA05ED
:1021F0000CED00E010B5002403F0B6F903F0CAF9C5
:1022000003F0E2F92BA0FEF70BF84FF4967000F004
:10221000FDFE2AA12A4803F059F9044625A0FDF73E
:10222000FFFF4FF4967000F0F1FE24A1244803F064
:102230004DF90446BCB920212248FFF7E8FC4FF4D1
:10224000967000F0E3FE4FF4967000F0DFFE202160
:102250001C48FFF7DEFC4FF47A7000F0D7FE4FF415
:102260007A7000F0D3FE13A0FDF7DAFF4FF49670FA
:1022700000F0CCFE11A1124803F028F904460BE04F
:102280000CA0FDF7CDFF4FF4967000F0BFFE0BA140
:102290000B4803F01BF90446002CF1D0FFF732FB8A
:1022A00009A0FDF7BDFF4FF4FA7000F0AFFEFFF795
:1022B00029FB10BD41540D0A000000004F4B0000E7
:1022C000B406002000080140415445300D0A0000CA
:1022D0007047000029B1064AD2690243044BDA6113
:1022E00004E0034AD2698243014BDA61704700007F
:1022F0000010024029B1064A12690243044B1A61D8
:1023000004E0034A12698243014B1A6170470000DE
:102310000010024029B1064A92690243044B9A61B7
:1023200004E0034A92698243014B9A6170470000BE
:102330000010024029B1064AD2680243044BDA6019
:1023400004E0034AD2688243014BDA607047000020
:102350000010024070B50021002300240022002557
:102360002C4E766806F00C0121B1042905D008290D
:1023700021D105E0284E066020E0284E06601DE0D1
:10238000244E766806F47013224E766806F4803484
:10239000022606EB93431CB9214E5E43066009E01A
:1023A0001C4EF66A06F00F06751C1C4EB6FBF5F6C1
:1023B0005E43066002E0184E066000BF00BF154E87
:1023C000766806F0F0010909164E725C0668D64080
:1023D0004660104E766806F4E061090A114E725CA0
:1023E0004668D64086600B4E766806F46051C90A8E
:1023F0000C4E725C4668D640C660064E766806F49F
:102400004041890B084E725CC668B6FBF2F6066165
:1024100070BD00000010024000127A0000366E010C
:1024200000093D0096000020A600002021B102888E
:1024300042F04002028004E002884FF6BF731A4067
:10244000028070470246002013890B400BB1012027
:1024500000E00020704701468889704781817047FD
:1024600010B50022028802F441520B884C882343A5
:102470008C882343CC8823430C8923434C892343F2
:102480008C892343CC8923431A430280838B4FF2E8
:10249000FF74234083830B8A038210BD704710B5FD
:1024A00000F002F810BD00000CB500200190009073
:1024B0002A48006840F480302849086000BF274857
:1024C000006800F4003000900198401C01900098D2
:1024D00018B90198B0F5A06FF1D12048006800F458
:1024E000003010B10120009001E000200090009821
:1024F000012831D1194840681849486008464068A9
:1025000048600846406848600846406820F47C10EF
:1025100048600846406840F440304860084600681B
:1025200040F08070086000BF0C48006800F0007048
:102530000028F9D00948406820F0030007494860A6
:102540000846406840F00200486000BF0348406809
:1025500000F00C000828F9D10CBD0000001002406A
:10256000042808D14FF0E021096941F004014FF03F
:10257000E022116107E04FF0E021096921F0040138
:102580004FF0E022116170477047000010B5144809
:10259000006840F00100124908600846406811498F
:1025A00008400F494860084600680F4908400C4938
:1025B00008600846006820F48020086008464068EB
:1025C00020F4FE0048604FF41F0088600020C862BD
:1025D000FFF765FF4FF000600449086010BD000080
:1025E000001002400000FFF8FFFFF6FE08ED00E0DB
:1025F00010B540F22551084800F0E3F858B10648FC
:1026000000F09AF9C1B2054802780078401C034BEB
:1026100018700348815410BD003801407400002038
:10262000B406002010B540F225511D4800F0C9F84D
:10263000A0B31C48006840F24F51884202DB0020E2
:1026400018490860164800F077F9C1B215480268C9
:102650000068401C134B18601348815418460068EA
:1026600001281BDD18460068401E0F49085C4728FA
:1026700014D118460068801E085C4E280ED10B4805
:102680000068401C0949086008460068022805D116
:10269000002240F22551024800F0BDF810BD0000B4
:1026A0000044004078000020B40800207C00002096
:1026B00010B540F225510C4800F083F898B10A4853
:1026C00000F03AF9C1B2094802680068401C074BA3
:1026D00018600748815418460068401E044A115C7F
:1026E000014800F02EF910BD004800408000002095
:1026F000030E002021B1828942F40052828104E05D
:1027000082894DF6FF731A408281704710B50446E6
:102710002048844209D101218803FFF70BFE0021E4
:102720004FF48040FFF706FE32E01B48844209D197
:1027300001214804FFF7DEFD00214FF40030FFF7D0
:10274000D9FD25E01548844209D101218804FFF70D
:10275000D1FD00214FF48020FFF7CCFD18E0104898
:10276000844209D10121C804FFF7C4FD00214FF4C0
:102770000020FFF7BFFD0BE00A48844208D1012189
:102780000805FFF7B7FD00214FF48010FFF7B2FDF9
:1027900010BD0000003801400044004000480040E7
:1027A000004C00400050004002460020B1F5007F80
:1027B00000D100BF13880B400BB1012000E00020C6
:1027C000704770B50246002400230025002040F623
:1027D0006A16B14200D100BFC1F3421501F01F03D8
:1027E000012606FA03F3012D02D19689334006E053
:1027F000022D02D1168A334001E0968A33400C1232
:10280000012606FA04F41688344013B10CB10120F5
:1028100000E0002070BDF0B503460024002600252E
:10282000002040F66A17B94200D100BF1846C1F334
:10283000421401F01F06012707FA06F5012C01D109
:102840000C3004E0022C01D1103000E014301AB139
:1028500007682F43076002E00768AF430760F0BDD9
:102860002DE9F04786B005460E460024A24600BF7B
:10287000A1460027B08900B100BF2F462C8A4CF634
:10288000FF700440F08804432C82AC894EF6F310AC
:102890000440B08831890843718908430443AC81FE
:1028A000AC8A4FF6FF400440B0890443AC8201A8D3
:1028B000FFF750FD1F48874202D1DDF810A001E06C
:1028C000DDF80CA0A88900F4004040B10AEBCA0072
:1028D00000EB0A1031684900B0FBF1F807E00AEBA1
:1028E000CA0000EB0A1031688900B0FBF1F86420DF
:1028F000B8FBF0F004012009642101FB1089A889CC
:1029000000F4004040B1322000EBC900B0FBF1F010
:1029100000F00700044308E0322000EB09106421B6
:10292000B0FBF1F000F00F0004432C8106B0BDE8CD
:10293000F08700000038014001468888C0F3080095
:102940007047C1F308028280704700000BE000BFAF
:102950000749098801F040010029F9D00178044AAB
:10296000121D1180401C01780029F0D17047000031
:102970000048004000BFFEE770B504460D462946FA
:102980002046FFF7DEFF00BF80212046FFF70CFF47
:102990000028F9D070BD2DE9F04107460D461646D6
:1029A000002400BF295D3846FFF7E6FF641CB442EF
:1029B000F8D3BDE8F08140F2013200204FF0E04151
:1029C00004F0A0B9024A0020110704F09BB90000EE
:1029D00001FDFFFF10B50446D1E9000100F002F847
:1029E000206010BDF8B504460D466A4601F0E4FBD0
:1029F00000987E30009000281FDC002213462046FD
:102A0000294603F069FD18D0002140F608004FF078
:102A1000000006462046294603F018FD044640F60D
:102A2000080006EA00014FF0000034F0004004BF47
:102A30000220FDF75CFC2046F8BD0098FF280DDB66
:102A40000220FDF754FC002213462046294603F0DD
:102A500009FE8CBF04484FF0FF40F8BD20462946D0
:102A6000BDE8F84003F0F2BC000080FF10B504465A
:102A70000A46D4E90003194601F006FFC4E9000143
:102A800010BD30380A2801D201207047002070475D
:102A9000014600BF704730B583B00446FDF722FC05
:102AA00005460020CDE90000024621466846FDF7B4
:102AB00031FD2846FDF71BFCDDE9000103B030BD08
:102AC0002DE9F041054600240027002600BF0BE059
:102AD0001348005D2C2801D1781CC7B2022F01D108
:102AE000264605E0601CC4B20E4800788442EFDB45
:102AF00000BF701CC4B206E00948015DA01B401E67
:102B00002954601CC4B2074800788442F4DB0021D9
:102B1000A01B401E2954FEF7F5FEBDE8F081000021
:102B2000B40600207400002010B5044607A120461A
:102B3000FDF794FB08B9012010BD06A12046FDF762
:102B40008DFB08B90220F7E70020F5E772656164A4
:102B50006469720067657466696C6500F0B5034668
:102B60000020002403E01D5C0D54451CE8B21D5CF0
:102B70003A2DF8D1451CE8B207E00546461CF0B2F4
:102B80005F5D2546661CF4B257551D5C0D2DF4D1D2
:102B9000F0BD000010B504460FA0FDF741FB642016
:102BA00000F034FA4F2221460F48FFF7F4FE64206C
:102BB00000F02CFA00BF0C48008800F0400000280C
:102BC000F9D01A200849091D0880642000F01EFA77
:102BD000FEF798FE10BD000041542B425453505054
:102BE00053454E440D0A00000038014070B50446BC
:102BF0000D4600202071401EE0622946204602F06A
:102C000013F908B1032070BD94F82E1294F82F0226
:102C100041EA00204AF65521884201D00220F2E71D
:102C200094F86900010694F8680041EA004194F8BC
:102C3000670041EA002094F86610084320F07F40C6
:102C40000D49884201D10020DDE794F88500010696
:102C500094F8840041EA004194F8830041EA00209E
:102C600094F88210084320F07F400349884201D144
:102C70000020C8E70120C6E746415400024600E0B4
:102C8000521C107810B110788842F9D11078704732
:102C900070B503460D46586A021D680A1E68B6786C
:102CA000B0FBF6F400BF02CA09B9002070BD8C4227
:102CB00000D202E0641A121DF5E700BF106820443C
:102CC000F4E70246891E5069801E884201D8002020
:102CD00070479378906A01FB0300F9E702461232CD
:102CE000002002E00B5C1354401C0D28FADB7047F7
:102CF0002DE9F047064689460D48007808B901F0ED
:102D0000B3FC0024354685B1A0460CE02F7884EA58
:102D1000070A0AF0FF00074931F8100080EA24246E
:102D20006D1C08F10108C845F0D32046BDE8F087C6
:102D300084000020160F002070B504460E46314670
:102D40002046FFF7D5FF054684F84A50280A84F844
:102D50004B0070BD2DE9F04704468946B9F1000FDC
:102D600006D1E76817B16069B84215D8012713E0AA
:102D70004946204601F04CFA0646022E02D20120B6
:102D8000BDE8F087701C08B93046F9E76069B042C9
:102D900001D93046F4E74F463D4600BF6D1C6069DF
:102DA000A84204D80225BD4201D90020E8E72946FF
:102DB000204601F02DFA064606B909E0701C08B15C
:102DC000012E01D13046DBE7BD42E7D10020D7E735
:102DD00000BF6FF070422946204602F025FC804675
:102DE000B8F1000F08D1B9F1000F05D02A464946C5
:102DF000204602F019FC8046B8F1000F0BD1E560C7
:102E00002069401C78B12069401E2061607940F043
:102E10000100607107E0B8F1010F02D14FF0FF30FF
:102E200000E0012005462846AAE700002DE9F35FEF
:102E30000198D0F8009001E009F1010999F800002B
:102E40002F28F9D099F800005C28F5D00098866901
:102E50000B222021304601F0DDFF00252F46AB4636
:102E60004FF0080A00BF58460BF1010B19F800405B
:102E7000202C03DD2F2C01D05C2C00D153E02E2C14
:102E800001D057450DD3BAF1080F01D12E2C02D035
:102E90000620BDE8FC9F08274FF00B0AA806050E88
:102EA000E1E7802C01DB45F00305812C20DBFE2CC3
:102EB0001EDC58460BF1010B19F80080B8F1400FE9
:102EC00002DBB8F17E0F05DDB8F1800F06DBB8F14B
:102ED000FE0F03DCAAF10100B84201D80620D8E7B2
:102EE00038467F1C345438467F1C06F8008019E0B1
:102EF000214620A0FFF7C2FE08B10620C9E7412CF9
:102F000004DB5A2C02DC45F0020508E0612C06DBEC
:102F10007A2C04DC45F00105A4F12000C4B2384647
:102F20007F1C34549FE700BF09EB0B01019801603F
:102F3000202C01DC042000E0002004460FB906200C
:102F4000A7E73078E52801D105203070BAF1080FE5
:102F500001D1A806050E05F00300012801D144F0B7
:102F6000100405F00C00042801D144F00804F472A8
:102F700000208EE7222A2B2C3A3B3C3D3E3F5B5DF6
:102F80007C7F00004821AA2202704422427016224F
:102F90008270C1700A1202717047000010B50024DF
:102FA00005A10848FDF748F904464FF47A7000F08F
:102FB0002DF8204610BD00002B4254535050444180
:102FC00054413A00B406002010B56FF00400FFF73A
:102FD000C7FA0A4800680A49B0FBF1F009490870CD
:102FE0000846007800EB4001C1EBC0104FF6FF71BE
:102FF00001EAC0000449088010BD0000580000200C
:1030000000127A006C0000206E0000200146114A78
:1030100012884A434FF0E0235A6100229A611A460F
:10302000126942F001021A6100BF4FF0E0221069FC
:1030300000F001021AB100F48032002AF5D04FF0FE
:10304000E022126922F001024FF0E0231A6100220F
:103050009A6170476E0000202DE9F04104460E464B
:103060000021204600F032F90546EDB9002700BFE7
:103070002169206801F0D8FE054605B113E06069BA
:103080000078E52802D06069007820B9781C0746EE
:10309000B04201D107E000270121204600F038F8B6
:1030A0000546002DE4D000BF042D00D10725284699
:1030B000BDE8F0812DE9F04104460021204600F0F2
:1030C00005F9054615B12846BDE8F08100BF216924
:1030D000206801F0A9FE054605B116E0666937785B
:1030E0000FB9042511E0F07A00F0080030B90B2286
:1030F0003046A16901F06EFE00B906E000212046CD
:1031000000F006F80546002DE1D000BF2846DBE7B9
:103110002DE9F04104468846E088461CB0B208B16B
:10312000206910B90420BDE8F08106F00F000028E6
:103130006CD12069401C2061E06828B920680089B2
:10314000B04263D80420EEE720688078401E00EA91
:10315000161000285AD1E168206801F059F8054698
:10316000012D01D80220DEE7681C08B90120DAE74A
:1031700020684069A84243D8B8F1000F01D104206B
:10318000D1E7E1682068FFF7E5FD05460DB90720A6
:10319000C9E7012D01D10220C5E7681C08B901204B
:1031A000C1E7206802F096FE08B10120BBE7216864
:1031B00001F130004FF40072002101F02BFE29468E
:1031C0002068FFF77EFD2168C86200270EE001201D
:1031D00021680871206802F07DFE08B10120A2E795
:1031E0002068C06A401C2168C8627F1C2068807803
:1031F000B842ECD82068C06AC01B2168C86200BF12
:10320000E56029462068FFF75CFD2061E6802068C4
:10321000303006F00F0100EB41106061002082E7C2
:103220002DE9F04704468946042528E021692068F5
:1032300001F0FAFD054605B124E0D4F8148098F8B1
:1032400000600EB904251DE098F80B0000F03F0760
:10325000E52E0DD02E2E0BD00F2F09D027F02000F9
:10326000082801D1012000E00020484500D109E0F4
:1032700000212046FFF74CFF054605B102E020691A
:103280000028D3D100BF0DB1002020612846BDE841
:10329000F08770B5044601212046FFF7DDFE0546A4
:1032A00095B92169206801F0BFFD054665B9202266
:1032B0000021606901F0AEFD0B22D4E9050101F0A7
:1032C0009CFD012021680871284670BD2DE9F04160
:1032D00004460E46E680A568012D03D020684069AB
:1032E000A84202D80220BDE8F0812DB920680078FC
:1032F000032801D12068456A45B920680089B04299
:1033000001D80220EFE72068476A1EE02068807835
:103310004FEA001812E02946206800F079FF0546C0
:10332000681C08B90120DEE7022D03D3206840693C
:10333000A84201D80220D6E7A6EB08064645EAD205
:1033400029462068FFF7BDFC0746E5600FB902205B
:10335000C9E707EB161020612068303006F00F0136
:1033600000EB411060610020BDE72DE9F047044605
:103370000D464FF0000900262846FFF78CFB074654
:1033800003F064F88146484603F0E2FA86B284F816
:103390004260300A84F84300BDE8F08770B5054606
:1033A00075B902F08BFA044644B102F016FCFF2016
:1033B00002F086FB02F00CFC012070BD2046FCE709
:1033C000012400BF00BF0120F7E770B505460E4697
:1033D0001446F5B936B1012E14D0022E09D0032EB1
:1033E00015D10BE002F0FEFB08B1002070BD0120FA
:1033F000FCE74FF4007020800020F7E708202080D1
:103400000020F3E702F018FA20600020EEE7042025
:10341000ECE70420EAE72DE9F04106460F46904626
:103420001D4615B90420BDE8F0818EB9EAB24146C7
:10343000384602F00DFB044644B102F0CEFBFF20FB
:1034400002F03EFB02F0C4FB0120ECE70020EAE7BB
:10345000012400BF00BF0420E5E7014600207047BB
:103460002DE9F04105460E4617461C4614B90420C6
:10347000BDE8F08135B9E2B23946304602F0C2FB10
:103480000020F5E70420F3E72DE9F04704460E4657
:103490000025A9463046FFF7FEFA074602F0D6FFA0
:1034A00081460949484603F08BFA074603F034FA8F
:1034B000054604F8345F280A6070280CA070280EB6
:1034C000E070343CBDE8F08700007A440EB501217D
:1034D0000846FEF71FFF00210846FEF79BFA012071
:1034E000019000208DF808000C208DF809000120C3
:1034F0008DF80A0001A8FEF743FA06208DF80000B7
:1035000000208DF8010002208DF802006846FEF7C9
:103510002FFE0EBD70B50546284600F0E5FA0446BC
:1035200034B9284602F04AFF04460CB9002028604E
:10353000204670BD70B50446204602F03FFF0546A8
:103540000DB900202060284670BD00002DE9F1472C
:103550008BB0554E01220BA904A800F013FC0546C0
:10356000002D7DD101A80A9004A80B9900F0CEFD92
:10357000054605B9082500BF042DF2D100210498A5
:10358000FFF7E8FB0746002507B90725012F00D103
:103590000225781C00B901251DB9049802F09AFC97
:1035A0000546002D5AD139460498FFF78AFB81461B
:1035B000049800F130044FF400720021204601F01D
:1035C00029FC0B222021204601F024FC2E20207013
:1035D0001020E072A675310AE175310C2176310EAA
:1035E00061763946204602F009FC2022214604F18A
:1035F000200001F002FC2E2084F82100DDF818A044
:1036000004980078032804D10498406A504500D1FA
:10361000AA46514604F1200002F0F0FB049890F80D
:10362000028017E00498C0F82C9009F101090120EC
:1036300004990871049802F04DFC054605B10CE0B0
:103640004FF400720021204601F0E4FBA8F10100D4
:1036500000F0FF08B8F1000FE4D100BF2DB900E081
:103660001EE004A8FFF715FE054625B1394604986B
:1036700002F085F814E0099C1020E072A675310A6A
:10368000E175310C2176310E61763946204602F023
:10369000B5FB012004990871049802F0B7FB0546B8
:1036A00028460CB0BDE8F087000069BDF7B582B0D0
:1036B00016460398019001A800F085FE0546002DEE
:1036C00002DA0B2005B0F0BD0E4850F825400CB1D1
:1036D00000202070029810B100200299087009495A
:1036E000029841F82500029808B1012E01D000206F
:1036F000E8E7002203A902A800F044FB0746384689
:10370000E0E70000900000202DE9F7438AB005466D
:1037100016461DB909200DB0BDE8F08300202860D1
:1037200006F01F0626F001020BA903A800F02AFBF1
:103730000746002F7ED1CDF824D003A80B9900F0C6
:10374000E5FC0746089C0FB904B9062706F01C00E3
:10375000002850D04FB1042F03D103A8FFF799FDE3
:10376000074646F00806089C09E0E07A00F01100E0
:1037700008B1072703E006F0040000B10827002F76
:1037800038D106F00800002834D0DFF8E08084F853
:103790000E804FEA1821E1734FEA184121744FEA75
:1037A000186161740020E072207700216177A177B1
:1037B000E1772146039801F057F881460021204621
:1037C00002F01CFB012003990871B9F1000F11D020
:1037D0000398D0F82C804946039801F0D0FF0746A3
:1037E00047B9A9F101000399C8604146039801F067
:1037F0001BFB07460EE06FB9E07A00F0100008B13D
:10380000042707E006F0020020B1E07A00F0010092
:1038100000B1072747B906F0080008B146F02006B6
:103820000398C06AE8612C6227B9AE710020E87184
:10383000214600E017E0039801F016F82861E07FC8
:103840000106A07F41EA0041607F41EA0020217F1C
:103850000843E8600020A860A861686203982860B7
:103860002868C088A880384655E70000000069BD78
:1038700033B585B0044614B9092007B030BD002225
:1038800006A904A800F07EFA05461DBB0498206036
:1038900001A8A0612046069900F038FC0546B5B99C
:1038A000606958B16069C07A00F0100028B16169A0
:1038B000049800F0D9FFA06000E005253DB9049808
:1038C000C088A08000212046FFF700FD0546042D9A
:1038D00000D105250DB1002020602846CDE72DE957
:1038E000FF4F83B0044615469A46DDF810B000201D
:1038F000CAF80000204602F061FD0290029818B15B
:10390000029807B0BDE8F08FE07908B1E079F8E7F8
:10391000A07900F0010008B90720F2E7D4E902100D
:10392000401A00900098854200D9009DAAE02089A5
:10393000C0F30800002876D120688078401EA16876
:1039400000EA512000F0FF09B9F1000F1FD1A06873
:1039500010B9206901900CE0606A28B12046A16886
:10396000FFF796F9019004E06169206800F050FCCF
:1039700001900198022802D20220E071C1E701986B
:10398000401C10B90120E071BBE7019860616169DA
:103990002068FFF796F9064616B90220E071B0E7F5
:1039A0004E444FEA5528B8F1000F29D009EB080022
:1039B00021688978884203D920688078A0EB0908BB
:1039C00021684878434632465946FFF724FD10B136
:1039D0000120E07195E7A07900F0400068B1A0698E
:1039E000801B404509D2A169891B0BEB41204FF494
:1039F000007204F1280101F000FA4FEA482737E08D
:103A0000A069B04220D0A07900F0400080B12168C8
:103A10004878012304F12801A269FFF721FD18B1BC
:103A20000120E0716DE710E0A07920F04000A07166
:103A3000216848780123324604F12801FFF7EBFCA6
:103A400010B10120E0715CE7A6612089C0F3080095
:103A5000C0F50077AF4200D92F462089C0F3080295
:103A600004F1280011183A46584601F0C6F900BF83
:103A7000BB44A0683844A060DAF800003844CAF8B3
:103A80000000ED1B002D7FF452AF002039E7FEB59A
:103A900005460E46284602F091FC04460CBB2EB9A2
:103AA00000212846FFF712FC04461AE0C5F818D09A
:103AB00000212846FFF7B4FB0446042C02D1002065
:103AC000286100246CB93146284600F044FC0021EE
:103AD0002846FFF71DFB0446042C02D10020286174
:103AE00000242046FEBD00002DE9F041044620469A
:103AF00002F064FC0746002F4AD1A07900F02000B4
:103B0000002845D0A07900F0400078B121684878BD
:103B1000012304F12801A269FFF7A2FC10B10120E2
:103B2000BDE8F081A07920F04000A071E169206833
:103B300001F07AF90746002F2AD1256AE87A40F089
:103B40002000E872207B2877A089010A6977E06865
:103B5000010CA977E068010EE9772846216902F097
:103B60004DF90C4EAE75310AE975310C2976310EDE
:103B700069760020A8740021E974A07920F0200063
:103B8000A071012021680871206802F03FF9074602
:103B90003846C5E7000069BD2DE9FF4F83B00446F4
:103BA00015469B46049801900020CBF80000204663
:103BB00002F004FC0290029818B1029807B0BDE828
:103BC000F08FE07908B1E079F8E7A07900F0020021
:103BD00008B90720F2E7A0682844A168884200D20B
:103BE0000025BEE02089C0F3080000287DD12068B0
:103BF0008078401EA16800EA512000F0FF0ABAF167
:103C0000000F26D1A06838B9276997B9002120682C
:103C1000FFF7A0F807460CE0606A28B12046A168CB
:103C2000FFF736F8074604E061692068FFF792F86D
:103C3000074607B998E0012F02D10220E071BDE7E5
:103C4000781C10B90120E071B8E76761206900B9FC
:103C50002761A07900F0400078B1216848780123FD
:103C600004F12801A269FFF7FBFB10B10120E0710C
:103C7000A4E7A07920F04000A07161692068FFF7F7
:103C800020F8064616B90220E07197E756444FEA3D
:103C90005529B9F1000F2CD00AEB09002168897869
:103CA000884203D920688078A0EB0A092168487807
:103CB0004B4632460199FFF7D3FB10B10120E0716A
:103CC0007CE7A069801B48450ED2A069801B019A41
:103CD00002EB40214FF4007204F1280001F08DF84E
:103CE000A07920F04000A07100E016E04FEA4928DA
:103CF0002AE0A069B0420FD0D4E9020188420BD279
:103D0000216848780123324604F12801FFF783FB3C
:103D100010B10120E07151E7A6612089C0F30800CD
:103D2000C0F50078A84500D9A8462189C1F308024A
:103D300004F1280150184246019901F05EF8A0797B
:103D400040F04000A07100BF019840440190A0687D
:103D50004044A060DBF800004044CBF80000A5EB35
:103D60000805002D7FF43EAF00BFD4E90201884270
:103D700001D9A068E060A07940F02000A071002087
:103D80001CE700002DE9F74F88B00021089801607A
:103D9000099800F018FB07900798002803DA0B2019
:103DA0000BB0BDE8F08FD549079851F820400CB909
:103DB0000C20F5E708980460207878B16078FFF768
:103DC0004CFB804608F0010040B90A9820B108F089
:103DD000040008B10A20E3E70020E1E7002020709A
:103DE000079860706078FFF7D9FA804608F0010004
:103DF00008B10320D4E70A9820B108F0040008B104
:103E00000A20CDE7002739462046FEF7EFFE05469B
:103E1000012D01D06DBB2CE0002614E004F5F771F4
:103E200001EB0610017951B1C17A0A06817A42EAA2
:103E30000142417A42EA0121027A114300E0002165
:103E40004DF82610761C042EE8D3002606B1761E07
:103E500000BF5DF8267027B139462046FEF7C6FE42
:103E600000E0022005461DB1701C06460428F0D370
:103E700000BF032D01D1012092E70DB10D208FE786
:103E80003B20015D94F83C0041EA0020B0F5007F42
:103E900001D00D2084E74620015D94F8470041EAF7
:103EA0000029B9F1000F0ED194F85700010694F8DB
:103EB000560041EA004194F8550041EA002094F888
:103EC000541040EA0109C4F818904020005DE070E9
:103ED000E078012804D0E078022801D00D205FE7C7
:103EE000E07809FB00F93D20005DA070A07818B1D2
:103EF000A078411E084008B10D2051E74120015D26
:103F000094F8420041EA00202081207A00F00F005E
:103F100008B10D2044E74320015D94F8440041EAD4
:103F2000002BBBF1000F0ED194F85300010694F85A
:103F3000520041EA004194F8510041EA002094F80F
:103F4000501040EA010B3E20015D94F83F0041EA29
:103F500000200490049808B90D2021E704984844F3
:103F6000218900EB111006900698834501D20D209F
:103F700016E70698ABEB0000A178B0FBF1FABAF1B6
:103F8000000F01D10D200BE7012540F6F6708245A8
:103F900000D302254FF6F670824500D303250AF1BF
:103FA00002006061E7610498384420620698384452
:103FB000A062032D16D1208908B10D20F0E694F8F7
:103FC0005F00010694F85E0041EA004194F85D004C
:103FD00041EA002094F85C10084360626069800048
:103FE000059014E0208908B90D20D9E6206A4844DC
:103FF0006062022D02D16069400007E0207D00F080
:104000000100616901EB410100EB51000590A169DC
:10401000059800F2FF10B1EB502F01D20D20BFE642
:104020004FF0FF302061E06080206071032D5AD195
:1040300094F8601094F8610041EA0020012852D100
:10404000791C204600F0F0FEE8BB0020607194F877
:104050002E1294F82F0241EA00204AF65521884298
:1040600041D13320005D01063220005D41EA00416C
:104070003120005D41EA002094F8301008432049C7
:10408000884230D194F81702010694F8160241EAEA
:10409000004194F8150241EA002094F814120843F4
:1040A000184988421FD194F81B02010694F81A029D
:1040B00041EA004194F8190241EA002094F81812EC
:1040C0000843206100E00EE094F81F02010694F816
:1040D0001E0241EA004194F81D0241EA002094F8D2
:1040E0001C120843E060257007480088401C80B21D
:1040F00005490880E080002052E600009000002082
:104100005252614172724161940000202DE9F341E5
:104110000446019800782F2803D0019800785C2885
:1041200002D10198401C01900020A0600198007805
:10413000202807D200212046FFF7C8F805460020B6
:10414000606128E000BF01A92046FEF76FFE05462A
:1041500005B11FE02046FEF7ADFF0546A069C67A0F
:104160003DB1042D04D100BF06F0040000B90525BF
:1041700010E006F0040000B10CE06769F87A00F086
:10418000100008B9052505E03946206800F06CFBF1
:10419000A060D8E700BF2846BDE8FC8100BF054A03
:1041A000128802F04002002AF9D0C2B2014B1B1D56
:1041B0001A8070470038014010B514460022226072
:1041C000114A21F000439342A8BF10BD53EA0002F8
:1041D00008BF10BDB3F5801FA8BF226807DA3622DA
:1041E00002F090FD6FF0350221F000432260DFF80D
:1041F0001CC06FF31E510CEB23531A4441F0FF51C6
:1042000041F00051226010BD0000F07F02FCFFFF72
:104210002DE9F04705460C46022C02D36869A042FE
:1042200002D84FF0010969E04FF0FF3928780128E2
:1042300004D002282ED003285CD13FE0274607EBAC
:104240005707286A00EB5721284600F0EDFD00B122
:1042500053E038467F1CC0F3080105F1300010F828
:104260000180286A00EB5721284600F0DDFD00B1EF
:1042700043E0C7F3080105F13000405C48EA00283C
:1042800004F0010010B14FEA181001E0C8F30B0070
:10429000814632E0286A00EB1421284600F0C4FD74
:1042A00000B12AE040F2FF1000EA440105F13000BD
:1042B0000E183078717840EA01291EE0286A00EB78
:1042C000D411284600F0B0FD00B116E040F2FF1016
:1042D00000EA840105F130000E18F0780006B1788C
:1042E00040EA0140717840EA01203178084320F02B
:1042F000704902E04FF0010900BF00BF4846BDE829
:10430000F08730B5ADF51F7D044601222146684691
:10431000FFF7FAF905466846FFF7E6FBC5B98AAB31
:104320004F228BA96846FFF7DAFA054609E08AAB07
:104330004F228BA96846FFF7D2FA05468BA8FEF7F5
:1043400029FC8A980028F2D16846FFF7E3F8054671
:104350000DF51F7D30BDF0B5044601F1090220695D
:1043600000282DD06069002310E01E465B1C855D8F
:10437000202D00D10AE0052D00D1E525092B02D121
:104380002E2602F8016B02F8015B00BF0B2BECD369
:10439000C67A0E72C67F3706867F47EA0647467F93
:1043A00047EA0626077F3E430E60077E467E47EAC1
:1043B00006268E80877DC67D47EA0626CE8000BF12
:1043C00000201070F0BD70B502464FF0FF30156848
:1043D000DDB1116800E0491C0D78212D02D30D7864
:1043E0003A2DF8D10D783A2D0ED1146814F8015BEE
:1043F000A5F130030A2B06D28C4204D11BB9184612
:104400004D1C2946156070BD002000BFFBE7000071
:1044100030B58DB00446214606A8FFF729FA0546B7
:10442000CDB9694606A8FFF732FB05460BE00DF152
:104430000900FEF7AFFB09A0FEF7ACFB694606A832
:10444000FFF725FB05469DF809000028EFD106A8D7
:10445000FFF770F805460DB030BD00000D0A0000F2
:104460002DE9F0478146884616461F460025002460
:1044700000BF1EA1484601F029F8054645B100BF1E
:1044800003E0285D08F80400641CB4F5806FF8DBD5
:10449000002402E000203055641C802CFADB00254B
:1044A000002412A1484601F011F8054635B102E09A
:1044B000285D3055641C285D2428F9D1002402E0D1
:1044C00000203855641C802CFADB0025002408A14C
:1044D000484600F0FBFF054635B102E0285D38553F
:1044E000641C285D2428F9D1BDE8F0874E47000000
:1044F0004E5200002DE9F04705460C4617469846F7
:104500004FF0000900260AE01AA1284600F0DEFF5D
:10451000054615B90020BDE8F0876D1C761CBE422B
:10452000F2DBA94699F800002C2803D10020607422
:104530000120F0E70120607408E06069401C6061C0
:1045400028782E2801D16069A0616D1C28782C285C
:10455000F3D1002603E019F80600A055761C606927
:10456000B042F8DCB8F1010F01D168782074002066
:10457000D1E700002C000000002102E0002242549C
:10458000491C1029FADB00220274426182617047E3
:1045900010B504462046FEF7F5FC2749204601F0F9
:1045A000E4F826492046FEF799FB2549204600F00D
:1045B00051F80123052223492348FFF79BFF214996
:1045C000204600F049FA1F48FFF7D6FF01230322D7
:1045D0001C491D48FFF78EFF1A49204600F0C8F815
:1045E0001848FFF7C9FF0023092216491748FFF7AB
:1045F00081FF14492046FEF747FF1248FFF7BCFF32
:10460000134A2146104801F08FFC002308220D496F
:104610000D48FFF76FFF0B492046FEF7A6FE09483D
:10462000FFF7AAFF0749204600F083FF4A21E01C5C
:10463000FEF782FB002010BD0100002011000020C9
:1046400021000020800600208005002000060020B8
:104650009C06002002461F32002002E00B5C13542F
:10466000401C0D28FADB704730B5002018E000210F
:10467000024600230DE081EA020404F0010424B1A3
:104680004AF2010484EA610100E0491052105C1C06
:10469000A3B2082BEFDB054C24F81010441CA0B289
:1046A000FF28E4DD0124024D2C7030BD160F0020E0
:1046B000840000200146CA1701EB92729210A1EB10
:1046C000820292B9642091FBF0F200FB121050B903
:1046D0004FF4C87091FBF0F200FB121008B90120F2
:1046E00070470020FCE70120FAE70020F8E710B54A
:1046F00000F024FF00F082FF10BD000010B5402143
:104700000148FDF784FA10BD000C014010B50420EB
:1047100000F042F900BF01211248FDF76FFA0028AE
:10472000F9D140211048FDF774FA01210D48FDF739
:1047300065FAB0B94FF47A70FEF768FC4FF47A70FE
:10474000FEF764FC4FF47A70FEF760FC0121054827
:10475000FDF754FA28B9012004490870042000F03C
:104760004BF910BD00080140000C01400000002082
:104770002DE9F04F87B006460D460024374903C99E
:10478000CDE90501354B08330FCB01AF0FC7A2466A
:10479000A346002000908146A869052813D100BFD8
:1047A00003E0285D05A90855641C022CF9DB0024F0
:1047B00004E0A01C285C01A90855641C6869801EDF
:1047C000A042F6DC15E0A869042812D1002403E019
:1047D000285D05A90855641C012CF9DB002404E0C0
:1047E000601C285C01A90855641C6869801EA042F1
:1047F000F6DC05A800F036FE824601A8FEF74BF96C
:10480000074601F023FE83461549584601F0C2FFD2
:104810000746504602F0BCF88046394601F058FF82
:1048200000901049009802F0CBF8074602F074F8A7
:104830008146287C532801D1C9F1000906F8309F30
:104840004FEA192070704FEA1940B0704FEA1960B2
:10485000F070303E07B0BDE8F08F0000F06D00084A
:10486000000070428096184B10B502468C7ECB7EBD
:1048700044EA03201378032B05D10C7D4B7D44EAD9
:10488000032340EA034010BD2DE9F04106460C46E3
:1048900040F2FF75174635EA14502BD0002213461C
:1048A000304601F019FE25D03A463046214602F046
:1048B00029FA06460C4635EA145010D00022134659
:1048C000304601F009FE15D10220FBF710FDFEF77E
:1048D00079F80A46214662F31E01BDE8F081022004
:1048E000FBF705FDFEF767F80A46214662F31E0155
:1048F000BDE8F08130462146BDE8F08108B50121D0
:104900000820FDF707FD8020ADF8000010208DF88D
:10491000030003208DF8020069460248FDF79AF86B
:1049200008BD0000000C014008B501211020FDF772
:10493000F1FC4FF40050ADF8000010208DF803009A
:1049400003208DF8020069460F48FDF783F84FF405
:104950008040ADF8000010208DF8030003208DF892
:10496000020069460848FDF775F84FF40040ADF8BD
:10497000000010208DF8030003208DF80200694626
:104980000148FDF767F808BD0010014010B5FFF7BA
:10499000B5FFFFF7C9FF10BD10B50446012C03DABF
:1049A000042C01DD012010BD012C06D0022C09D001
:1049B000032C0DD0042C17D110E020210C48FDF75A
:1049C00028F911E04FF400510A48FDF722F90BE0F5
:1049D0004FF480410748FDF71CF905E04FF4004112
:1049E0000448FDF716F900BF00BF0020DBE7000018
:1049F000000801400010014010B50446012C03DA04
:104A0000042C01DD012010BD012C06D0022C09D0A0
:104A1000032C0DD0042C17D110E020210C48FDF7F9
:104A2000F6F811E04FF400510A48FDF7F0F80BE0FA
:104A30004FF480410748FDF7EAF805E04FF40041E4
:104A40000448FDF7E4F800BF00BF0020DBE70000EA
:104A500000080140001001402DE9F04F87B00646E4
:104A60000D460024424903C9CDE90501404B0833F6
:104A70000FCB01AF0FC7A246A3460020009081468E
:104A8000A869062813D100BF03E0285D05A90855D1
:104A9000641C032CF9DB002404E0E01C285C01A961
:104AA0000855641C6869C01EA042F6DC2CE0A869A9
:104AB000052813D1002403E0285D05A90855641CCE
:104AC000022CF9DB002404E0A01C285C01A9085595
:104AD000641C6869801EA042F6DC15E0A869042801
:104AE00012D1002403E0285D05A90855641C012C9F
:104AF000F9DB002404E0601C285C01A90855641C53
:104B00006869401EA042F6DC05A800F0ABFC8246B6
:104B100001A8FDF7C0FF074601F098FC8346154940
:104B2000584601F037FE0746504601F031FF8046F7
:104B3000394601F0CDFD00900F49009801F040FF8B
:104B4000074601F0E9FE8146287C572801D1C9F1CA
:104B5000000906F82C9F4FEA192070704FEA19409F
:104B6000B0704FEA1960F0702C3E07B0BDE8F08FCE
:104B7000D86D0008000070428096184BADF59C6D12
:104B80000025002473A207CA0DF2D44307C374A101
:104B900003C90DF2CC4203C200200290FEF714FAC2
:104BA000FFF7A5FDFFF7F2FEFFF7B0FD4FF4A060A1
:104BB000FDF716FBFEF78AFC4FF4E13001F008FB2D
:104BC0004FF4E13001F054FB4FF4E13001F0A6FB6B
:104BD00000BF00F073FE0028FBD1012262A1A7A84C
:104BE000FEF764FDFDF706FB6048007800287AD1E7
:104BF00008220DF2D4415E48FDF7CDFE00F0AEF97B
:104C00005C495D4800F02AF95CA0FBF709FB4FF412
:104C10007A70FEF7FBF9FCF7FFFFFDF751F84FF450
:104C20007A70FEF7F3F94FF47A70FEF7EFF94FF46C
:104C30007A70FEF7EBF952480346524A09A90090F0
:104C400016A800F0DFFB5048504B4D4A03A90090D6
:104C50000FA800F0D7FB13224D491DA8FEF754FD05
:104C60001DA8FEF741FF3CE04A48006802281AD11F
:104C7000494B4A4A4A494B48FFF7F2FB002403E0FC
:104C8000002048490855641C40F203608442F7D371
:104C90000020454908603F490860012240F2255143
:104CA0004248FDF7B8FD4248FFF772FC4F224049E9
:104CB0002F48FDF770FE4F223D493E48FDF76BFE41
:104CC00002AB4F223A491DA8FEF766FF1DA8FEF76A
:104CD0000BFF4FF47A70FEF799F94FF47A70FEF7F4
:104CE00095F9C1E7FFE721480078012830D1082273
:104CF0000DF2CC411E48FDF74EFEFCF7B9FD00BF9A
:104D0000FCF750FD0028FBD021E0FEF747F90546EF
:104D1000EDB100252848FDF7D3FE284A284926484A
:104D2000FDF71CFF2648FDF7FFFE012802D00228F0
:104D300008D103E02148FFF76BFB07E01F48FFF7AE
:104D4000E0FA03E01FA0FDF725FF00BF00BFDCE78E
:104D500000BFFEE747534D204D6F64650000000023
:104D60004254204D6F646500303A0000000000207E
:104D700000480040AC000020C00000202B2B2B007E
:104D800034000020310000203B00002045000020BE
:104D9000480000207C000020800500200006002044
:104DA00080010020B408002078000020004400406A
:104DB000F000002000380140400100207001002078
:104DC00060010020656E746572206572726F720DED
:104DD0000A000000F0B503461C460D46002000BF47
:104DE000161EA2F1010207D014F8017B15F801CBC1
:104DF000A7EB0C06301EF3D0F0BD70B503460C4691
:104E000003E014F8015B03F8015B151EA2F1010237
:104E1000F7D170BD30B5034601E003F8011B141E45
:104E2000A2F10102F9D130BD70B504460D4600264D
:104E3000E06AA84210D0204601F04CF806465EB960
:104E4000607801232A4604F13001FEF7E4FA10B13C
:104E50004FF0FF350126E562304670BD30B50246A1
:104E6000002000E0521C1378222BFBD1521C0020A2
:104E70000DE0145C831CCC54145C344DEC54145C75
:104E8000334DEC54145C334DEC54431CD8B202281F
:104E9000EFDBD21C00200EE0145C4B1D1C54145C94
:104EA0002A4D031DEC54145C294DEC54145C294D1F
:104EB000EC54431CD8B20228EEDB2F23244CA37100
:104EC000244CA371D21C00200FE0145C01F10803F4
:104ED0001C54135C204C2354145C1D4DC31DEC5416
:104EE000145C1C4DEC54431CD8B20228EDDB2F237C
:104EF000184C6372D21C00200AE0145C01F10B0311
:104F00001C54145C134D00F10A03EC54431CD8B23A
:104F10000228F2DBD21C00200AE0145C01F10E032F
:104F20001C54145C0B4D00F10C03EC54431CD8B220
:104F30000228F2DBD21C002005E0145C01F1110311
:104F40001C54431CD8B20228F7DB30BD34000020CB
:104F50003B000020480000204500002070B50025DF
:104F60000024D8A0FBF75CF94FF4FA70FEF74EF876
:104F7000D4A0FBF755F94FF4FA70FEF747F8D3A128
:104F8000D348FBF759F904460DE0FCF7BBFCCDA074
:104F9000FBF746F94FF4FA70FEF738F8CBA1CC488E
:104FA000FBF74AF90446002CEFD0FCF7ABFCC9A094
:104FB000FBF736F94FF4FA70FEF728F8C8A0FBF7B4
:104FC0002FF94FF4FA70FEF721F8C8A1C048FBF79B
:104FD00033F904460DE0FCF795FCC1A0FBF720F97E
:104FE0004FF4FA70FEF712F8C3A1B948FBF724F9A1
:104FF0000446002CEFD0FCF785FCC2A0FBF710F9AB
:105000004FF4FA70FEF702F8C2A1B148FBF714F9A9
:1050100004460DE0FCF776FCBAA0FBF701F94FF46B
:10502000FA70FDF7F3FFBEA1A948FBF705F90446A6
:10503000002CEFD0FCF766FCBCA0FBF7F1F84FF4B6
:10504000FA70FDF7E3FFA1A1A148FBF7F5F80446CC
:105050000DE0FCF757FCB5A0FBF7E2F84FF4FA704F
:10506000FDF7D4FF99A19A48FBF7E6F80446002C17
:10507000EFD0FCF747FCB5A0FBF7D2F84FF4FA707D
:10508000FDF7C4FF91A19248FBF7D6F804460DE066
:10509000FCF738FCADA0FBF7C3F84FF4FA70FDF74E
:1050A000B5FF8AA18A48FBF7C7F80446002CEFD069
:1050B000FCF728FCADA0FBF7B3F84FF4FA70FDF74E
:1050C000A5FF82A18248FBF7B7F804460DE0FCF784
:1050D00019FCA6A0FBF7A4F84FF4FA70FDF796FFB1
:1050E0007AA17B48FBF7A8F80446002CEFD0FCF728
:1050F00009FCA2A0FBF794F84FF4FA70FDF786FFC5
:1051000072A17348FBF798F804460DE0FCF7FAFB30
:105110009AA0FBF785F84FF4FA70FDF777FF6BA1C3
:105120006B48FBF789F80446002CEFD0FCF7EAFB4C
:1051300096A0FBF775F84FF4FA70FDF767FF63A1CF
:105140006348FBF779F804460DE0FCF7DBFB8FA022
:10515000FBF766F84FF4FA70FDF758FF5BA15C4867
:10516000FBF76AF80446002CEFD0FCF7CBFB8BA0D2
:10517000FBF756F84FF4FA70FDF748FF53A1544877
:10518000FBF75AF804460DE0FCF7BCFB83A0FBF7E5
:1051900047F84FF4FA70FDF739FF4CA14C48FBF784
:1051A0004BF80446002CEFD0FCF7ACFB83A0FBF7D8
:1051B00037F84FF4FA70FDF729FF44A14448FBF794
:1051C0003BF804460DE0FCF79DFB7CA0FBF728F8BC
:1051D0004FF4FA70FDF71AFF3CA13D48FBF72CF89D
:1051E0000446002CEFD0FCF78DFB77A0FBF718F8F6
:1051F0004FF4FA70FDF70AFF76A13548FBF71CF86B
:1052000004460DE0FCF77EFB6FA0FBF709F84FF4B6
:10521000FA70FDF7FBFE6FA12D48FBF70DF8044671
:10522000002CEFD0FCF76EFB6CA0FAF7F9FF4FF4FF
:10523000FA70FDF7EBFE25A12548FAF7FDFF0446BD
:105240000DE0FCF75FFB65A0FAF7EAFF4FF4FA7098
:10525000FDF7DCFE1DA11E48FAF7EEFF0446002C08
:10526000EFD0002460A11A48FAF7E6FF044604E0F4
:10527000605D5F494855681CC5B2605D0028F7D184
:10528000FCF740FB5BA0FAF7CBFF4FF4FA70FDF799
:10529000BDFE0EA10E48FAF7CFFF04460DE0FCF765
:1052A00031FB54A0FAF7BCFF4FF4FA70FDF7AEFEE5
:1052B00006A10748FAF7C0FF0446002CEFD0FCF720
:1052C00021FB70BD41540D0A000000004F4B00004F
:1052D000B406002041542B4353510D0A0000000036
:1052E0002041542B435245473F0D0A002B43524562
:1052F000473A20302C3500002B435245473A2030A6
:105300002C3100002041542B43475245473F0D0AA2
:10531000000000002B43475245473A20302C35000F
:105320002B43475245473A20302C310041542B53F0
:10533000415042523D332C312C22434F4E54595050
:1053400045222C2247505253220D0A0041542B5320
:10535000415042523D332C312C2241504E222C22BE
:10536000434D4E4554220D0A0000000041542B537A
:10537000415042523D312C310D0A000041542B5313
:10538000415042523D322C310D0A000041542B4312
:105390004E54504349443D310D0A000041542B43C3
:1053A0004E54503D226E7470322E616C6979756E68
:1053B0002E636F6D222C33320D0A000041542B43B3
:1053C0004E54503F0D0A000041542B434E54500D93
:1053D0000A000000434E54503A20310041542B4300
:1053E000434C4B3F0D0A00002B43434C4B00000045
:1053F000C000002041542B53415042523D302C31CB
:105400000D0A00002DE9F04780460C4615461E4661
:10541000DDF820904FF0000A002729464046FEF7AD
:1054200027FA824621464046FEF731FB82460CE0D1
:10543000314604F10900FAF711FF08B9012707E026
:1054400021464046FEF723FB8246607A0028EFD1D2
:1054500000BF012F03D04846FEF778F88246384651
:10546000BDE8F08730B5014600230022002409B9C9
:10547000002030BD08782D2802D10124501CC2B272
:1054800007E0885C303803EB830500EB4503501CD4
:10549000C2B2885C0028F4D1012C00D15B421846CE
:1054A000E7E7F0B503460C461E46A4460AE0357809
:1054B0009CF80070761C0CF1010CE91B09B1084640
:1054C000F0BD521E002AF2D10020F9E72DE9F0418B
:1054D00004460D460027B846287810B92046BDE896
:1054E000F08100BF00E0641C207818B12078297892
:1054F0008842F8D1002602E008F10108761CA05D80
:105500000028F9D1002601E07F1C761CA85D002848
:10551000FAD1B84500DAE2E73A4629462046FFF7D5
:10552000C0FF08B92046DAE7641C4FF000080027E6
:10553000D8E7052280F847207047000008B5012110
:105540000420FCF7E7FE0120ADF8000004208DF8F0
:10555000030003208DF8020069460248FCF77AFA3E
:1055600008BD00000008014008B501210420FCF737
:10557000D1FE2020ADF8000010208DF8030003209C
:105580008DF8020069460248FCF764FA08BD000085
:105590000008014008B501210820FCF7BBFE0120EE
:1055A000ADF8000010208DF8030003208DF80200F4
:1055B00069460448FCF74EFA01210248FCF729FB32
:1055C00008BD0000000C014008B501210820FCF7CF
:1055D000A1FE0220ADF8000010208DF8030003208A
:1055E0008DF8020069460448FCF734FA02210248AB
:1055F000FCF70FFB08BD0000000C014008B50121BD
:105600000820FCF787FE4020ADF8000010208DF840
:10561000030003208DF8020069460248FCF71AFADD
:1056200008BD0000000C01402DE9F04705460E467C
:105630001746022E02D36869B04202D84FF0020822
:1056400090E02878012804D0022844D003287DD196
:1056500059E0B14609EB5909286A00EB592128465F
:10566000FFF7E2FB8046B8F1000F00D079E0484632
:1056700009F10109C0F3080105F130000C1806F02A
:10568000010020B1F9B2207861F31F1000E0384624
:10569000207001202871286A00EB59212846FFF765
:1056A000C3FB8046B8F1000F00D05AE0C9F30801EF
:1056B00005F130000C1806F0010010B1C7F3071017
:1056C00005E0207800F0F000C7F3032108432070C4
:1056D0000120287145E0286A00EB16212846FFF7D3
:1056E000A3FB8046B8F1000F00D03AE040F2FF1073
:1056F00000EA460105F130000C182770380A607086
:10570000012028712DE0286A00EBD6112846FFF70A
:105710008BFB8046B8F1000F00D022E040F2FF1072
:1057200000EA860105F130000C18E0780006A17847
:1057300040EA0140617840EA01202178084300F006
:10574000704007432770380A607000E006E0380CAC
:10575000A070380EE0700120287102E04FF00208BE
:1057600000BF00BF4046BDE8F0870246521D002042
:1057700002E00B5C1354401C0D28FADB70472DE946
:10578000F04104460E46022E02D36069B04201D8B1
:10579000022727E0002721E031462046FEF738FDAA
:1057A000054605B91DE0012D01D1022719E0681C4D
:1057B00008B9012715E0002231462046FFF734FFE3
:1057C000074607B10DE02069401C30B12069401C3C
:1057D0002061607940F0010060712E466069B0423E
:1057E000DAD800BF3846BDE8F08170B50546002420
:1057F00001220021092000F0B0F9044624B910214B
:10580000284600F063F904460CB1012070BD002069
:10581000FCE770B505464FF6FE7401E0601E84B2E9
:10582000FF2000F04DF9A84201D0002CF6D10CB9B0
:10583000FF2070BD0020FCE77FB500250020009010
:10584000019002900390002400266846FFF7CDFFE8
:1058500010B1002004B070BD9DF8000000F04000C1
:1058600048B19DF809009DF8081000EB012084B2B2
:10587000601C850220E09DF8050000F00F009DF8F7
:105880000A1000EBD1109DF8091001F0030100EBA4
:105890004100861C9DF8080080119DF8071000EB60
:1058A00081009DF8061001F0030100EB8120441CEB
:1058B000A6F1090004FA00F52846CBE7F8B5002068
:1058C000009000240026002500F0E2F900205E4947
:1058D000086000F082F900BF04E0FF2000F0F0F85B
:1058E000601C84B20A2CF8DB142600BF952200212C
:1058F000084600F032F90546012D04D0301EA6F10D
:1059000001018EB2F2D1002050490870012D4AD118
:1059100087224FF4D571082000F01FF9012847D1E4
:10592000002406E0FF2000F0CBF80DF80400601C16
:1059300084B2042CF6DB9DF80200012879D19DF891
:105940000300AA2875D14FF6FE7600BF0122002180
:10595000372000F002F901229107292000F0FDF81C
:10596000054625B1301EA6F101018EB2EED1002E02
:105970005FD0012200213A2000F0EFF8002858D132
:10598000002406E0FF2000F09BF80DF80400601CE6
:1059900084B2042CF6DB9DF8000000F0400018B142
:1059A00006202A49087044E004202849087040E095
:1059B00001220021372000F0D0F801220021292007
:1059C00000F0CBF80546012D17DC02201F490870B6
:1059D0004FF6FE7600BF01220021372000F0BDF80F
:1059E00001220021292000F0B8F80546BDB1301E83
:1059F000A6F101018EB2EED111E001201349087029
:105A00004FF6FE7600BF01220021104600F0A5F8F7
:105A1000054625B1301EA6F101018EB2F3D12EB19B
:105A200001225102102000F098F810B1002007491F
:105A300008700648007808B10020F8BD0DB128466E
:105A4000FBE7AA20F9E70000BC0121428C000020FE
:105A50002DE9F04106460F461546184800780628FD
:105A600000D07F02012D0CD101223946112000F017
:105A700074F80446FCB96902304600F027F8044681
:105A800019E001223946122000F067F8044600BFF1
:105A90004FF40071304600F019F8044606F5007620
:105AA000681EC0B2051E01D0002CF1D001220021D9
:105AB0000C2000F052F82046BDE8F0818C00002058
:105AC00010B50446204600F05DF910BD70B50446DF
:105AD0000D46FE20FFF79DFE08B1012070BD04E0D9
